:03000000020445B2
:0C044500787FE4F6D8FD75813902048C44
:100863004461726B204C6576656C207C0044616D3D
:10087300616765207C004F4E2020004F46462000D4
:1008FA00012700042800000000022C000001240146
:06090A000125000126009A
:10001600120A3A120A981208A3120A45120AA212E2
:100026000A2C120914C00712092DC007120946C06E
:100036000712095FC0071209788F0FD00ED00DD0B6
:1000460003D005E4FF12078EAF27EF70731209F98C
:100056001207108F081206D0EF60207524017F0169
:100066001209E67BFF7A087963120835AF087E002D
:100076001205877F7C120A9D020270E524600A7FC2
:10008600C87E00120A7DE4F5247F011209E67BFF93
:100096007A087970120835750901D3E50994047454
:1000A6008094804003020270AF091204D1EF600C05
:1000B600AF097E001205877F7C120A9D050980DA4A
:1000C6007F011209E6AF27EF64017BFF70067A080D
:1000D600797980047A08797E120835E5266003026C
:1000E600017CE525640170047F3C80027F20120AB2
:1000F6009DAF27EF25E02427F8E6FF120991E525B5
:10010600640170047F3E80027F20120A9D7F3A12AE
:100116000A9DE52570047F3C80027F20120A9DAF70
:1001260027EF25E02426F8E6FF120991E52570045D
:100136007F3E80027F20120A9D120A50EF600975E9
:100146002501120A50EF70FA120A59EF6009E4F518
:1001560025120A59EF70FA120A74EF700302027040
:10016600AF27742B2FF87601752601120A74EF70EB
:100176000302027080F5E525640170047F3E80026B
:100186007F20120A9DAF27EF25E02427F8E6FF120D
:100196000991E525640170047F3C80027F20120AE4
:1001A6009D7F3A120A9DE52570047F3E80027F20DE
:1001B600120A9DAF27EF25E02426F8E6FF120991E3
:1001C600E52570047F3C80027F20120A9D120A50AA
:1001D600EF604AAF257E00EF6401700FAC27EC2577
:1001E600E024262525F8E664176013EF4E701DAE51
:1001F60027EE25E024262525F8E6643B700EAE277B
:10020600EE25E024262525F8E4F6800BAE27EE251C
:10021600E024262525F806120A50EF70FA120A592C
:10022600EF6038AE27EE25E024262525F8E6701A7D
:10023600E525640170047F1780027F3BAD27ED251D
:10024600E024262525F8A607800BAE27EE25E02418
:10025600262525F816120A59EF70FA120A74EF606D
:1002660009E4F526120A74EF70FAE52C60141209F7
:100276005FEFB5280D120946EFB529061208C3E44B
:10028600F52CE52D601412095FEFB52A0D1209460B
:10029600EFB52B06120006E4F52D7F647E001208EA
:0402A60083020028A7
:030003000206846E
:10068400C0E0C0F0C083C082C0D075D000C000C03C
:1006940001C002C003C004C005C006C007120AABF3
:1006A400EF600512000680031208C3120A62EF709D
:1006B400FAD007D006D005D004D003D002D001D0A0
:0C06C40000D0D0D082D083D0F0D0E03243
:03001300020635AD
:10063500C0E0C0F0C083C082C0D075D000C000C08B
:1006450001C002C003C004C005C006C0070527AF2E
:1006550027D3EF9402748094804003752700120A13
:100665006BEF70FAD007D006D005D004D003D002C6
:0F067500D001D000D0D0D082D083D0F0D0E032EE
:0B0A3A00D288D28AD2A8D2AAD2AF2262
:10071000EFFD7C00D394E17480948040037F00223D
:10072000D3ED94D9EC6480948040037F0122EFFDE7
:100730007C00D394CD7480948040037F0222D3ED5B
:0F07400094B1EC6480948040037F03227F0422F5
:10088300E4FDFCC3ED9FEC9E5015E4FBFA0BBB00AB
:10089300010AEB646E4A70F50DBD00010C80E42281
:050A9300D2A5C2A5225E
:060A8D00A2A6E433FF22E3
:100A1C00AF807580FFD2A4AE80C2A48F80AF0622B7
:1009F900120A8DEF6003120A93120A8DEF60FA0250
:020A09000A1CC5
:050A9800C2A4C2A5226A
:10074F00C2B7C2B6D2B7E4FEEEC3940874809480E9
:10075F00500FEF1392B5EFC313FFD2B6C2B60E8090
:10076F00E7E4FEEEC3940874809480500FED13926B
:0F077F00B5EDC313FDD2B6C2B60E80E7C2B722E6
:08052D00C4540F75F00AA4FC90
:10053500E4FEC2B7C2B6D2B7FDEDC3940874809489
:1005450080500FEF1392B5EFC313FFD2B6C2B60DAD
:1005550080E7E4FDEDC39408748094805019A2B53A
:10056500E433F50AC43333335480FFEEC3134FFE2F
:10057500D2B6C2B60D80DDC2B7D2B6C2B5D2B5AF5E
:0205850006224C
:1002AA008E2E8F2F8D30E4FD7F8E12074FAE2EAF2C
:1002BA002F7C007D641203F07C007D0A1203F0EFAC
:1002CA00C4F8540FC868FFAA07AE2EAF2F7C007D72
:1002DA00641203F07C007D0A1203F0EA2DFD7F8A86
:1002EA0012074FAE2EAF2F7C007D641203F07E0002
:1002FA007F0ACFCDCFCECCCE1203F0EFC4F8540F85
:10030A00C868FFAA07AE2EAF2F7C007D641203F0E7
:10031A007E007F0ACFCDCFCECCCE1203F0EA2DFDE0
:10032A007F8C12074FE53075F00A84C454F0FFE55C
:10033A003075F00A84E5F02FFD7F8812074FEB75C0
:10034A00F00A84C454F0FFEB75F00A84E5F02FFD3F
:10035A007F8612074FE53275F00A84C454F0FFE530
:10036A003275F00A84E5F02FFD7F8412074FE533DA
:10037A0075F00A84C454F0FFE53375F00A84E5F099
:10038A002FFD7F8212074FE53475F00A84C454F0BA
:10039A00FFE53475F00A84E5F02FFD7F8012074FE0
:0703AA007D807F8E02074FEA
:100801007F8B120535EF7F8B12052DEF540F2CFFD7
:100811007E007C007D641203DEAA06AB077F8D1289
:100821000535EF7F8D12052DEF540F2C7E002BFF28
:04083100EE3AFE227B
:100914007F89120535EFC4540F75F00AA4FC7F8952
:09092400120535EF540F2CFF22DF
:10092D007F87120535EFC4540F75F00AA4FC7F873D
:09093D00120535EF540F2CFF22C6
:100946007F85120535EFC4540F75F00AA4FC7F8528
:09095600120535EF540F2CFF22AD
:10095F007F83120535EFC4540F75F00AA4FC7F8313
:09096F00120535EF540F2CFF2294
:100978007F81120535EFC4540F75F00AA4FC7F81FE
:09098800120535EF540F2CFF227B
:100A0B0020202020202020202020202020202020DB
:010A1B0000DA
:1008DF00C2A2C2A1ED24FF92A08F80D2A3C2A3D245
:0B08EF00A27F017E00120883C2A2223B
:070A8600E4FD7F010208DF1F
:1009AA00EF1460088000E4FD7F808004E4FD7FC0CE
:0409BA001208DF221E
:050A9D007D010208DFED
:100587008E118F12E4F523E512451170057F3012A5
:100597000A9DD3E5129400E5119400402AAE11AFED
:1005A700127C007D0A1203F0ED2430FFAE230523F1
:1005B70074132EF8A607AE11AF127C007D0A120342
:1005C700F08E118F1280CBE523600E15237413254F
:0A05D70023F8E6FF120A9D80EE22D1
:100991008F10C3EF940A748094805006E4FFFE1216
:0909A1000587AF107E00020587F6
:100835008B0B8A0C890DE4F50EC3E50E94107480BC
:1008450094805019AB0BAA0CA90D850E82758300F7
:0E0855001203B1FF6007120A9D050E80DC221F
:1009E6008F0A1209AA7BFF7A0A790B120835AF0A19
:0309F6000209AA49
:10078E008D0B8B0C1209AA7F3C120A9DAF0B12091E
:10079E00917F2F120A9DAF0C1209917F20120A9D94
:1007AE00AF0D1209917F3A120A9DAF0E1209917F79
:0E07BE003A120A9DAF0F1209917F3E020A9D6A
:1008A3007580FFE4FD7F061208DFE4FD7F0C12086C
:1008B300DFE4FD7F381208DF120A86E4FF0209AA8B
:0B0A4500D2B0D2B1D2B2D2B3D2B422F0
:090A500020B0037F01227F002287
:090A590020B1037F01227F00227D
:090A620020B2037F01227F002273
:090A6B0020B3037F01227F002269
:090A740020B4037F01227F00225F
:030AA200C2A722C6
:030AA500D2A722B3
:030AA800C2A722C0
:090A7D00120AA5120883020AA85E
:03091000013500AE
:1008C300753501E53724FF9290E53824FF9291E5D1
:0C08D3003924FF9292E53A24FF92932210
:0C000600E4F535C290C291C292C2932270
:030AAB00AF352242
:1004D100AE07120AABEF7002FF22EE24FE601A147F
:1004E100602714603424037040E5366009309403BA
:1004F1007F01227F00227F0022E5376009309503CA
:100501007F01227F00227F0022E5386009309603B7
:100511007F01227F00227F0022E5396009309703A5
:0C0521007F01227F00227F00227F002249
:1005E1008F0DEF6009D394047480948040037F00E1
:1005F100227435250DF87601120AABEF6033E50D53
:1006010024FE600E14600F1460102403700ED2904B
:10061100800AD2918006D2928002D2937F327E00EC
:10062100120883AF0D1204D1EF70037F01227F0006
:04063100227F012201
:1007CC00AE07EE602FD39404748094805026743559
:1007DC002EF8E4F6120AABEF601AEE24FE600D144C
:1007EC00600D14600D2403700BC29022C29122C2C2
:0507FC009222C29322CD
:1009BE007F011205E17F021205E17F031205E17F3F
:0409CE00040205E139
:1009D2007F011207CC7F021207CC7F031207CC7F64
:0409E200040207CC38
:0E0A2C00D294D295D296D2971209D20208C364
:1006D0008F0A750B01EF70031209D2750C01D3E577
:1006E0000C9404748094805024E50A9400748094DF
:1006F000804011AF0C1205E1EF6004150A800AE496
:10070000F50B8005AF0C1207CC050C80D1AF0B2286
:10045100020016E493A3F8E493A34003F68001F2AB
:1004610008DFF48029E493A3F85407240CC8C333AC
:10047100C4540F4420C8834004F456800146F6DF7B
:10048100E4800B01020408102040809008FAE47E09
:10049100019360BCA3FF543F30E509541FFEE49370
:1004A100A360010ECF54C025E060A840B8E493A337
:1004B100FAE493A3F8E493A3C8C582C8CAC583CA62
:1004C100F0A3C8C582C8CAC583CADFE9DEE780BE1A
:0109130000E3
:1003B100BB010CE58229F582E5833AF583E0225001
:1003C10006E92582F8E622BBFE06E92582F8E2224B
:0D03D100E58229F582E5833AF583E4932265
:1003DE00EF8DF0A4A8F0CF8CF0A428CE8DF0A42E33
:0203EE00FE22ED
:1003F000BC000BBE0029EF8DF084FFADF022E4CCF1
:10040000F875F008EF2FFFEE33FEEC33FCEE9DECB9
:10041000984005FCEE9DFE0FD5F0E9E4CEFD22EDFF
:10042000F8F5F0EE8420D21CFEADF075F008EF2F49
:10043000FFED33FD4007985006D5F0F222C398FD3A
:050440000FD5F0EA22D7
:00000001FF
